:020000041000EA
:1000000000B52F4B212058609868022188439860E2
:10001000D860186158612B4B002199600221596109
:100020000121F02299502849196001219960352059
:1000300000F03EF80222904214D00621196600F02A
:100040002EF8196E01211966002018661A6600F054
:1000500026F8196E196E196E052000F029F8012195
:100060000842F9D1002199601849196000215960AE
:1000700017491848016001219960EB211966A021F8
:10008000196600F00CF800219960134911480160CD
:100090000121996001BC002800D11048004703B538
:1000A000996A04200142FBD001200142F8D103BD2E
:1000B00002B518661866FFF7F2FF186E186E02BDDB
:1000C00000000240000000180000070000035F006D
:1000D00021220000F4000018222000A001010010DD
:1000E0000000000000000000000000000000000010
:1000F0000000000000000000000000003E272A6011
:10010000274800E000202749886006C881F3088856
:10011000104725480068002839D112A40ECC0029C8
:1001200002D000F012F8F9E72049214A002000E04F
:1001300001C19142FCD11F4988471F4988471F4987
:10014000884700BEFDE701C901C29A42FBD3704750
:10015000F2EB88716C3100108831001064010010DE
:1001600090A31AE788310010C0000020600A002028
:10017000283B00100000042000000420283B001051
:1001800000100420001004200000000070470C48FC
:1001900001F012FE0047EFF30580C0B27047000087
:1001A0000002001000ED00E0000000D0600A002016
:1001B000C80E00205D1500104D0500107D160010C2
:1001C0005756000006005250ABB360531831001070
:1001D00006005250861C03022831001006005250BF
:1001E0005422A29D3831001005005250DE65F4689B
:1001F000283B00100000000000000000000000008C
:100200000020042013010010C3020010C5020010DA
:10021000C1020010C1020010C1020010C102001092
:10022000C1020010C1020010C1020010C70200107C
:10023000C1020010C1020010C9020010CB02001060
:10024000CD020010CD020010CD020010CD02001032
:10025000CD020010CD020010CD020010CD02001022
:10026000CD020010CD020010CD020010CD02001012
:10027000CD020010CD020010CD020010CD02001002
:10028000CD020010CD020010CD020010CD020010F2
:10029000CD020010CD020010CD020010CD020010E2
:1002A000CD020010CD020010CD020010CD020010D2
:1002B000CD020010CD020010CD020010CD020010C2
:1002C00000BE00BE00BE00BE00BE00BEFFF763FF62
:1002D000103800BEF8B5C0460448054B10B583423F
:1002E00003D0044B002B00D0984710BD600A0020BB
:1002F000600A00200000000006480749091A8B1018
:10030000C90FC91810B5491003D0044B002B00D0F9
:10031000984710BD600A0020600A0020000000001D
:1003200010B5074C2378002B09D1FFF7D5FF054BFB
:10033000002B02D0044800E000BF0123237010BD51
:10034000600A002000000000C8300010054B10B506
:10035000002B03D00449054800E000BFFFF7CCFFA5
:1003600010BDC04600000000640A0020C830001024
:1003700070B5074C050026009936FF36290020008D
:1003800000F01AFA002802D14434B442F6D170BD0C
:10039000240B0020F0B5C64600B5192082B000F04D
:1003A0003DFBD02380221B0692045A620D23FE26B9
:1003B0003D4C3E4F3E4D012200212000009301970D
:1003C000013B00F0ADF9B605200000F091F92000E6
:1003D000321C291C00F078F944239846313BA04494
:1003E00007220621404600930197013B00F098F94F
:1003F000404600F07DF94046321C291C00F064F9AB
:1004000088239846793BA04403220221404600936A
:100410000197013B00F084F9404600F069F940463D
:10042000321C291C00F050F9CC239846B73BA0445D
:1004300009220821404600930197013B00F070F922
:10044000404600F055F94046321C291C00F03CF9AA
:1004500088235B009846FF3BA044052204214046C8
:1004600000930197013B00F05BF9404600F040F932
:100470004046321C291C00F027F91A235534FF345A
:100480000B220A21200000930197043B00F048F959
:10049000200000F02DF92000321C291C00F014F976
:1004A00002B004BC9046F0BD240B00207103001084
:1004B00000007A4470B500F065FD00293ED0FA22B4
:1004C0000023920001F0ECFC05001F4C200000F01E
:1004D00099F92000443000F095F92000883000F0B0
:1004E00091F92000CC3000F08DF920001130FF3060
:1004F00000F088F920005530FF3000F083F900F05B
:1005000041FD002912D0FA220023920001F0C8FC1C
:10051000401B1328F3D925009935FF352000E16BE6
:10052000443400F067F9AC42F8D170BDFA2189007B
:1005300001F070FC401B1328E1D9ECE7FA21890097
:1005400001F068FC0500C0E7240B002010B5FFF7A0
:1005500021FFFFF7AFFFFCE7FE22F0B55746454607
:10056000DE464E469046534BE0B51A60AE3A94468E
:1005700040465A60504A5864924660465A61012289
:1005800098649346504698655846DA6200220021E6
:10059000444618677F301A500430195004301C50FC
:1005A000644604301C505446444F454E0430454D7B
:1005B0001F5004301E5004301D5004309F60DE6018
:1005C0001D611A635A63DA63DF641E655D655A67ED
:1005D0009A6799631964D9671C505C4618301C509F
:1005E000444604301A5004301A5004301950043074
:1005F0001A500430195004301C50644604301C500A
:10060000544604301F5004301E5004301D50043036
:100610001C505C4618301C50444604301A500430BC
:100620001A500430195004301A5004301950043054
:100630001C50644604301C50544604301F50043093
:100640001E5004301D5004301C505C4618301C50A5
:10065000444604301A5004301A5004301950043003
:100660001A500430195004301C50644604301C5099
:1006700004301F50B0277F00DE51B22676009D5116
:10068000B42550466D00585158463134FF34185146
:100690008430FF301A5004301A500430195004309E
:1006A0001A50CA22520099503CBC90469946A24624
:1006B000AB46F0BD240B002000601F45E17AA4404A
:1006C0000080D444CDAC0D4470B504004163406952
:1006D000111C151C01F058FE291C6061E06801F036
:1006E00053FE291CE060206901F04EFE206170BDC0
:1006F000FE230360AE3B4360054BC360054B0361C3
:10070000054B4361054B83600023C363036370475C
:10071000000008424F1B683E00601F45C4C3A34051
:1007200070B50400049DE26163620800A161A562E6
:100730001E0000F073F9E06900F070F9A06904216F
:1007400000F018F9E069042100F014F9A369190711
:10075000490F8A00154B52189200D018144B216291
:100760000361802380214360124B49019C460C00A9
:100770006244136814431B041B0C23601368014379
:100780001B0C1B04236001242200036830009A43E1
:100790000A60059B0122082100F004F9280000F0FE
:1007A0003DF9D023AC401B069C6270BD00000540A3
:1007B000FF0300000C000540436A70B504000025EB
:1007C0008B4201D0280070BDD0231B06826A5B6873
:1007D000FE21D34001221500006B1D4089051A42FD
:1007E00003D001F0CBFD2063ECE701F0C4FD01254F
:1007F0002063E7E710B50400006B01F0BFFD206344
:1008000010BDC04670B54669056B0400311C281C3C
:1008100001F0E8FD002832D0E06B216901F0AEFD67
:10082000061CE063A168301C01F0AEFD01F0F0FD94
:1008300063680021C5182564301C01F0D9FD00282B
:100840004FD18023DB009D4201DB294D2564E36A03
:10085000226A002B30DD93009B18264A9B009446A9
:10086000802263441868520145402D041A432D0C20
:1008700015601B681B0C1B041360002070BD311C2D
:10088000281C01F0BDFD002809D0311C606B01F06F
:1008900072FD011C281C01F0A5FD002825D121694D
:1008A0000025E06B01F067FD291C061C01F0A0FD8E
:1008B000002815D1E663B5E793009B180D4A802107
:1008C00094469B0063441A68490112041943120CB0
:1008D0000A6018682D0445402D0C2D040D60CCE7EE
:1008E000E563002300252364B1E7E66B9AE7C04681
:1008F000FF0300000C000540D0231B06F0B51E6866
:10090000C646731E9E41734230261E40164B00247D
:100910009C46164B07270F25984600B56644E0080D
:1009200003003A0008339B009B5922409200D340B9
:10093000290019401D4210D00B0093401A003C3092
:100940000B4B8000C250D02342461B061B689B0005
:100950009B58002B01D02000984701341E2CDED17B
:1009600004BC9046F0BDC04600410140B00A0020E2
:1009700000400140094A830094464022634410B578
:100980001C68C0006240C0241440802252011343FE
:100990001C60034B9C466044416010BD04C0014094
:1009A0000040014070B50600D02000060468F5083C
:1009B000601E84413020644204401448844607206D
:1009C0003040800081402800114E3C30644480005B
:1009D000AD0081516419002A12D080229201144383
:1009E0002160D022120612680A49920053500D204D
:1009F000094901F033F801210D2001F015F870BD0F
:100A0000C022920114432160EBE7C046004101403F
:100A100000400140B00A0020F90800100123D02254
:100A20008340120693629361094A830094464022F0
:100A300063441968C0004A40C0211140802252011D
:100A400013431960034B9C46052360444360704781
:100A500004C0014000400140F8B5CE4647469146EB
:100A600080B5EFF3108772B6124E3368002BFCD0BE
:100A7000BFF35F8FCB08C55C0724C2182800012391
:100A80000C409446E0401A000240904603420DD1CB
:100A9000A34062462B431370BFF35F8F434633601E
:100AA00087F310880CBC90469946F8BD484600F084
:100AB000E7FDC0462C0100D00021044B044ABFF3DF
:100AC0005F8F02C39342FAD17047C046000100D045
:100AD000800100D0044A1078431CDBB2172B00D9E8
:100AE000102313707047C04688010020024B18681D
:100AF0008007C00F7047C04600C0064083680B489F
:100B000010B5844661446244090112019A185918CB
:100B100054684B6801209C4201D802D00020C0B22A
:100B200010BD12680B689A42F9D8F7E7FFFFFF0F74
:100B3000F0B557464546DE464E46E0B583B01F0049
:100B40000FAB1B780E9C050092460193002C0DD133
:100B50000268947B002C56D0116863008C461B19E8
:100B60006344033B5B789373002B54D0AA68E3B2D1
:100B7000944652469B46384B2E68E3181B0163444B
:100B80001A600C9A5F609A600D9ADA60D023802216
:100B90001B0612035A6163001B19033B984600228F
:100BA000336843449A705A701A70737B9946002BCD
:100BB00017D05A461900B068736898473268002801
:100BC0002BD14346D1184B4658465B004B44033B60
:100BD000D31898704046125C002A00D05A704B46D9
:100BE0000B705B46737352463B00287D00F01AFA87
:100BF000061E02D0019B002B26D0109B002B28D074
:100C000020001E7000E0002003B03CBC90469946D6
:100C1000A246AB46F0BDD373A8E74B465B004B44FE
:100C2000033BD1188C464146484651188870D35C26
:100C3000002B00D04B705B46624613704B46200081
:100C40007373A145E0D1CEE75946286800F048FC0F
:100C5000D3E72000D8E7C046FFFFFF0FF0B5DE4620
:100C60004E46574645460023E0B58DB00A93714B7A
:100C70008200D3580B90994600239B464B4607931E
:100C800000F080F9079C06000F006268EFF3108502
:100C900072B61368002BFCD022000794BFF35F8F5D
:100CA0002468637B9946002B00D170E09268624B08
:100CB00090464B441B01984443461A685B681000F9
:100CC0001900801BB941002968DD0B9800F0AAF9D2
:100CD00000230026984600279A46079C6368BFF3C6
:100CE0005F8F5A461A6085F310885346002B08D14F
:100CF0000028C5D10DB03CBC90469946A246AB46F3
:100D0000F0BDD023802280211B06920309035A6183
:100D100099619A610A9B414618024B461843D04795
:100D2000089009916268EFF3108572B61368002B82
:100D3000FCD00794BFF35F8F0899099A002A49DB1A
:100D4000114303D0079B1B69002B5ED1079B1B68D7
:100D5000DA7B002A07D051008A1819688C46494668
:100D60006244033A51704A46DA734B46079A013B94
:100D7000D168CA5C0132CA545B46079A1361536852
:100D8000BFF35F8F5A461A6085F3108878E7002317
:100D90000026984600279A4600209EE7002902D1A7
:100DA000002800D091E70121200000F0FBFA434623
:100DB0001E685F689B68079A9A464346DB689846B8
:100DC000D3684B44013B1B780A931B020343136116
:100DD000002082E72369002BB8D033003C005B1A67
:100DE00094411A002300A74219D89F421BD05946AC
:100DF00004910121039149460291414601915146D6
:100E000007980091FFF794FEB6E700F0BBF8089A48
:100E1000099B06000F0092197B419942E5D90122F6
:100E20005242D317E3E79642E1D901225242D31747
:100E3000DDE7C046040B0020FFFFFF0F70B5184C24
:100E40002368002B00D070BD032000F08FF8032032
:100E500000F04AF91349032000F09EF8182001F031
:100E600063FB0500FFF736FE0F4B2A009C466044EB
:100E700080000E496860102000F09EF91021286063
:100E8000102001F055FB0121A860102001F050FB5B
:100E900003232B75064BE860DD602560D3E7C04671
:100EA000F00A00205D0C001040000034FD0A001024
:100EB000040B0020F0B5D6464F464646C0B5EFF3CA
:100EC00005833F22134018001038EFF3108C72B6E0
:100ED000204D2A68002AFCD0BFF35F8F0122110049
:100EE00081401D4C884661631C4917000E788A4674
:100EF0003100C1400F400A4215D019498200646A8E
:100F000051588C4219D3174BD25843469E435346EF
:100F10001E70BFF35F8F00232B608CF31088002AB4
:100F200006D0904704E0BFF35F8F2F608CF31088EA
:100F30001CBC90469946A246F0BD0B4A9B009046C9
:100F400043441A681A60BFF35F8F00232B608CF351
:100F50001088EDE7280100D000400540BE0C0020BD
:100F6000140B0020B80A0020D03F054010B5010046
:100F7000024A0348FFF770FD10BDC046C83000109C
:100F8000BC0C0020034B596A0A00986A596A8A42CD
:100F9000FAD170470040054070B504000D00EFF332
:100FA000108672B61A4A1368002BFCD0BFF35F8F0D
:100FB000002D1BD0200000F049FD164981420AD0C7
:100FC000200000F04BFD0121200000F02DFD012349
:100FD000A340114A1360114BA400E550BFF35F8F8B
:100FE00000220B4B1A6086F3108870BD0B4BA200D9
:100FF000D5500122A2400A4920000B7893430B7080
:10100000044900F055FD0021200000F00DFDE5E74A
:10101000280100D0B50E001038600540B80A002045
:10102000BE0C0020F0B5CE46474680B52A4C616A1A
:101030000D00A66A616AA942FAD18B4207D804D092
:1010400001200CBC90469946F0BDB242F8D9EFF3AE
:10105000108872B6214C21680029FCD0BFF35F8F45
:10106000012585401C4C1E4E6563E9B28C463178E3
:10107000894661464F4639433170011D89000A5146
:10108000184980004350216A002029420CD02000DA
:10109000616A0C00876A416AA142FAD18B4202D888
:1010A0000AD1BA4208D90020BFF35F8F00220B4B50
:1010B0001A6088F31088C4E7074B4F461D625D63D2
:1010C00063469F4301203770BFF35F8F0022034BBD
:1010D0001A6088F31088B4E700400540280100D06A
:1010E000BE0C0020140B002010B5EFF3108472B674
:1010F0000A490B68002BFCD0BFF35F8F01238340AC
:10110000074A0848136202789A430270BFF35F8F60
:1011100000230B6084F3108810BDC046280100D066
:1011200000400540BE0C0020024B9C4661448900F3
:10113000016070474000003410B50400FFF7CAFC9E
:1011400001002000FFF7F0FFBFF35F8F10BDC04626
:1011500070B505000E001400002924D0002A24D008
:1011600080686B689847296800280ED063001B19B7
:101170007200033B9219CB18033A9E7088188A5C60
:10118000002A14D1047030000EE073009B19620035
:10119000033B1219CB18033A9C7088188A5C002A0A
:1011A00000D05A700670200070BD0800FCE75A702D
:1011B00004703000F8E7C046F0B5C64605000F00E1
:1011C00000B510210120160001F0B2F9EBB20400C5
:1011D0000373032147602800984601F0A9F9002312
:1011E00063730133A3734346FF21E373FE2320603F
:1011F000A66029402B4206D0421CFD3B01331370F0
:1012000003328B42FAD34B0059180023401803389D
:101210004370200004BC9046F0BDC046F8B5CE46F1
:10122000474606000C0080B5002907D04D00036832
:101230006D18033D5A195778002F04D120000CBCBB
:1012400090469946F8BD7900C91903398846434448
:101250005978894600215970517073683A0021000D
:10126000806898473368002814D042469A189470D2
:1012700059195B5D002B00D053700F702700494651
:101280003000FFF7CBFF390002003000FFF760FFAE
:101290000400D3E7424641465D19AF709A185B5C83
:1012A000002B00D06B701470E9E7C046F0B55746CC
:1012B0004546DE464E46E0B50D006B0001685B1901
:1012C000DF1E0400C85D83B00192CA1900284CD00B
:1012D00043001B18033BCB185E78B446002E16D192
:1012E000019E002E3ED1E67B002E04D073009B1998
:1012F000CB18033B5D70E57300282FD1002353709A
:1013000003B03CBC90469946A246AB46F0BD720085
:101310006244033A89184A78904600224A709146FE
:101320005A70010032002000FFF712FF4346824648
:10133000002B07D05B0021684344033BCB185A784D
:10134000002A16D1424651462000FFF701FF2168CE
:10135000019BCA19002BC6D00028CFD043001B1810
:10136000033BCB1800219970C8E7019B002BC5D126
:10137000B9E7500080180338091848788346484672
:101380004870587041462000FFF7E2FE59468046FB
:101390002000FFF743FF414602002000FFF7D8FE80
:1013A0008046CFE7F0B54E464546DE465746E0B5A7
:1013B000467B040075000068AD19033D83B00191C0
:1013C000415D421900294ED04B005B18033BC31806
:1013D0005F78BC46002F18D1019D002D40D1E57BE0
:1013E000002D04D06B005B19C318033B5E70E673DD
:1013F000002931D1002330005370617303B03CBC2D
:1014000090469946A246AB46F0BD7A006244033A44
:101410008018427893460022427091465A7020000C
:101420003A00FFF795FE5B468046002B07D05B0035
:1014300021685B44033BCB185A78002A17D15A46DF
:1014400041462000FFF784FE019B010020684219FD
:10145000002BC4D00029CDD04B005B18033BC31830
:1014600000209870C6E7019B002BC3D1B7E750005E
:1014700080180338091848788246484648705870E2
:1014800059462000FFF764FE53468346002B07D0E1
:101490005B0021685344033BCB185A78002A06D1DD
:1014A000594652462000FFF753FE8346C7E75000D7
:1014B00080180338091848464F78487058705146CC
:1014C0002000FFF745FE390081462000FFF7A6FE09
:1014D000494602002000FFF73BFE8246E0E7C04697
:1014E00070B5040000292CD0437B8B422ED00568B8
:1014F00048004018033828188278002A21D0530069
:101500009B18033BEA5CEE188A4202D11BE0002ADA
:1015100008D053009B18033BEB185A788A42F6D147
:1015200042785A7000230022837043702000FFF736
:10153000BDFE617B02002000FFF70AFE6073012000
:1015400000E0002070BD43783370EBE70022190003
:10155000FFF7ACFE60730120F4E7C0462B4B2C4A2A
:1015600070B51A602B4A2C4B2C491A6010008B68FE
:101570009843FBD12A4C2B4B9C4209D2013B1D1BAB
:10158000AD080135AD002D1908CC9847AC42FBD110
:1015900000F094F8244A204B1A60204A9368DB013B
:1015A0008033FBD14022214B214C9A675A671A673E
:1015B000DA66204B9C420BD2013B1D1BED08013526
:1015C000ED002D1920000834FFF7B6FDAC42F9D12B
:1015D000194C1A4DA168C022280000F0BBFFA5607D
:1015E000FFF76AFA00F0A4FBFFF728FC144C154B38
:1015F0009C4209D2013B1D1BAD080135AD002D19E0
:1016000008CC9847A542FBD170BDC04600E0004021
:10161000BFCDFFFFFE7F3C0000F0004000C0004057
:10162000480A0020580A0020FFFFFF0100F0014097
:10163000400A0020480A002000ED00E000000020E1
:10164000580A0020600A0020094A03001068002898
:1016500005D00849C3188B4207D21360704706486B
:101660000449C31810608B42F7D301204042F5E7CC
:10167000FC0A002000000420C80E002000BEFDE788
:101680000FB400B5084883B001F03AF8049B002B72
:1016900007D005A91800019100F06EFB034801F086
:1016A0002FF800BEFDE7C046EC300010FC30001003
:1016B00010B50148FFF7E4FF0031001030B50C20F1
:1016C00083B000F06BF9FFF711FA00280ED09A4BA7
:1016D0009A4A1A605A609A60DA601A615A619A618D
:1016E000DA611A62964A5A6203B030BD954CA0671F
:1016F00000F05CF90122944B1A60636C012BFCD161
:101700000322924B1A608F4A936B012BFCD1C022AB
:101710008F4B92011A608F4B8F491A6010008B68B3
:101720009843031EFAD1022401218C4A8C480633C7
:10173000009400F04FF905238A4A01218A48009459
:1017400000F048F9894B5A68FF2A02D880225200DB
:101750005A608022784C7D4B21691201834D1A60BA
:10176000002905D0606900F055FB01300138FDD13A
:10177000E0217E4B02201A681140802252012A4348
:1017800011601968484003210140116004219A68E2
:101790001142FCD08022802192012A43090111606C
:1017A000802252005A60724B2361724B5968FF29A4
:1017B00000D85A6003226F48634B01211A6002006F
:1017C00093681942FCD0E02513681D4080235B011B
:1017D00003431D6012684A40032111401960022131
:1017E000644A93681942FCD0802380219B01034303
:1017F000090119608021604B4900516063615F4BB2
:101800005A68FF2A00D8596080225D4BE1691201B5
:101810005A4D1A60002905D0606900F0FBFA0130CA
:101820000138FDD1E02255490B681A4080235B0145
:101830002B431A60802380229B012B4312011A60E4
:1018400080223E4B52004A60E3614E4B5968FF29AB
:1018500000D85A6080224C4B216A1201494D1A600F
:10186000002905D0606900F0D5FA01300138FDD1BA
:10187000E02244490B681A4080235B012B431A6025
:10188000802380229B012B4312011A608023802237
:101890005B004B60294BD20223623C4B596891425A
:1018A00000D25A6080223A4B616A1201374D1A60A9
:1018B000002905D0606900F0ADFA01300138FDD192
:1018C000E02232490B681A4080235B012B431A60E7
:1018D000802380229B012B4312011A608023DB02AC
:1018E0004B60174B63622B4B5A68FF2A02D8802249
:1018F00052005A608022284BA1691201254D1A60BE
:10190000002905D0606900F085FA01300138FDD169
:10191000E02220490B681A4080235B012B431A60A8
:10192000802380229B012B4312011A6080235B00DD
:101930004B60114BA361D7E6C80A0020006CDC02A3
:101940001BB70000008000403CB0004030B00040B9
:1019500000E0004000F0004000C00040002F685947
:101960000080024000389C1C00C0024030800040D3
:10197000001BB7003C800040405973075480004072
:1019800054B000406080004060B000406C80004077
:101990006CB000404880004048B000408023024ABC
:1019A0009B000343D362704700800540AA23064A88
:1019B0001B0113602F230549D360054B1960536841
:1019C000002BFCDA7047C0460040024000B0FA002D
:1019D00000600240F8B51D0006AB1E7801235B4293
:1019E000436000230400836001600C20170000F0B6
:1019F00011FA4101091A8B01591AC9000918890104
:101A0000380000F007FAC021231D89011943212362
:101A1000A0600B602268002AFCDA08232D0436033C
:101A20002E43E6600B60F8BD01238340002904D0FB
:101A3000034A1360034A13607047034A1360FBE7CD
:101A400080E200E000E100E080E100E0024B1030C5
:101A50009B688000C058704700ED00E070B50D0035
:101A6000EFF3108672B60F4A1368002BFCD0BFF359
:101A70005F8F0D4B10309B6884001B590B4A9342BB
:101A800003D09D4201D0FFF713FE074B9B681D5109
:101A9000BFF35F8FBFF35F8F0022024B1A6086F3A4
:101AA000108870BD240100D000ED00E0CD020010D0
:101AB000F0B5DE4657464E464546E0B50C0083B0CD
:101AC000EFF3108A72B65F4A1368002BFCD0BFF3A5
:101AD0005F8F1022914681444A465B4B96009B687B
:101AE0009D595A4B98469D4205D0A54216D0584F55
:101AF000EB1B2F2B14D9544B9B689D51BFF35F8F69
:101B0000BFF35F8F00224F4B1A608AF3108803B037
:101B10003CBC90469946A246AB46F0BD1D00EAE7A4
:101B2000012383409B465A464A4B1B681A40009249
:101B30005A46494B1A60BFF35F8FFEF72CFB0190AA
:101B4000002803D0814501D0FFF7B2FD0123290011
:101B500099438B68A34269D00A0007E043001B1831
:101B60009B00FB189868A04211D01A00062010565E
:101B70000028F3DA009B002B05D05A46374B1A6039
:101B8000344B1A60B7E75A46334B1A60B3E7062066
:101B90001856002822DB4200111889007C1888465C
:101BA000A1689960E179D971062161569971A1798D
:101BB0007F292BD8A488F91A6405241544440919EF
:101BC000E0240905490D2402214399801218244B71
:101BD0009200BF181A781870BA71CBE701980028E4
:101BE00017D1FF3090711F4890801D4ACF1B10788D
:101BF000BF109871BB00DB1919015B1819025B1843
:101C000019045B185B00DB191370B3E7BD210902EF
:101C1000DBE7154A1549D21A083A5002400D014334
:101C20009980134952080A43DA80A3E70620085630
:101C30000B000028AFDA019A002AEAD10B004546D2
:101C4000D3E7C046240100D000ED00E0CD02001033
:101C50008C01002000E100E080E100E080E200E093
:101C6000BD0C002000BDFFFFC601002000F0FFFFFB
:101C700000F8FFFFF8B5012504000543FEF78BFAD5
:101C8000EFF3108672B6244A1368002BFCD0BFF322
:101C90005F8F224F8000E11B89108A0052181301C8
:101CA000D2181302D2181304D3181D4A5B005B1814
:101CB00091680958A9421CD00622BA5693421CD0FA
:101CC0001222BA56934222D01E22BA56934220D0F4
:101CD0002A22BA5603219A4210D0124A1178137060
:101CE000A171BFF35F8F00220B4B1A6086F310883F
:101CF000F8BD92680C491150EFE700214A005218D4
:101D0000FF219200BA18917108499180E5E70121FD
:101D1000F4E70221F2E7C046240100D08C01002044
:101D200000ED00E0BD0C0020CD02001000BDFFFF63
:101D3000F0B500220324FF27802620003D00094B38
:101D400011009C461040C0008540A14361440B68CF
:101D50000132AB43350085402B430B60202AECD188
:101D6000F0BDC04600E400E010B5002800D110BD71
:101D700000F0B8FCFBE7C04610B5094A0300146840
:101D800084B0002C08D0012200910648524203A9D9
:101D9000A047012004B010BD00F0B2FC0020F9E71C
:101DA000000B0020691D001001480421014B184759
:101DB000E0010020D91D0010142310B5010018887F
:101DC00004331B88984710BD162310B501001888EE
:101DD00002331B88984710BDF0B5C64600B50029F0
:101DE00016D01423040001259846182789004618A8
:101DF0004346216818883B88984701C4431E984190
:101E000040420540A642F3D1280004BC9046F0BDF4
:101E10000125F9E7134A936F9B0813D210665166A8
:101E2000002905D0FFE7FFE7FFE7516F106F70470C
:101E300004B5002801D00020C04301F02DF9002195
:101E400004BDC046936F5B08FDD3F0B5946ED56EAC
:101E5000576F166FFFF7E2FF9466D56657671667F0
:101E6000F0BD0000000000D094464E4A926F9208E8
:101E7000624601D230E0C046F0B54A4EB56F6D08FB
:101E8000FCD3346E756E776F366F00F025F894468C
:101E9000444A14665566576716676246F0BDC046E9
:101EA0009446404A926F9208624601D258E0C0467A
:101EB000F0B53C4EB56F6D08FCD3346E756E776F20
:101EC000366F00F04DF89446364A146655665767EB
:101ED00016676246F0BDC046002B24DB11D00029F6
:101EE0003EDA00B5C943404200D1013100F038F874
:101EF000C943404200D10131DB43524200D101339A
:101F000000BD002AEBD1002801D1002905D0002016
:101F1000C90FC90701D1C043410800B501F0B4F8A9
:101F20000022002300BD00B500290ADBDB4352423A
:101F300000D1013300F014F8C943404200D101310F
:101F400000BDC943404200D10131DB43524200D1C0
:101F5000013300F005F8DB43524200D1013300BDEC
:101F6000002923D1002B18D1002A0CD0BC460D4FDC
:101F700038667A6600210023FFE7FFE7FFE77A6F04
:101F8000386F67467047002801D00748010000B548
:101F900001F07AF80022002300BD02000B000020AF
:101FA00000217047000000D0FFFFFFFF002B00D092
:101FB000BDE0130C26D1002AE7D080B4104F39665B
:101FC0007A66FFE7FFE730B4040C7B6F396F1B04C0
:101FD00023433B66FFE7FFE7FFE7C04684B27B6F22
:101FE0003D6F1B0423433B66FFE7FFE7C04600232A
:101FF0002C042D0C7A6F386F00196941B0BC704702
:10200000000000D0F0B594460025140E01D1120254
:102010000835140F01D112010435940F01D192003B
:102020000235D40F01D152000135D40B0134254FB4
:102030007C66254C3C660E0C93B2FFE7FFE7FFE79A
:102040003C6F6643360C7703BE467343DF0B5B047D
:10205000C01AB941130C7343DB18C91ACE08664382
:10206000360CB64493B273431F0F1B01C01AB9411B
:10207000130C73431F0B1B05C01AB941860D8F0249
:102080003E436643360C092D24DB520A7243801A04
:102090007703460A6643360C16235B1BDE40DF409F
:1020A000BF1964466643821B70460435063301003F
:1020B000D940A840C01900D30131A24206D2002362
:1020C000F0BD0000000000D0FFFFFFFF121B013039
:1020D000F3D3F1E709277F1BFE406446A2B27243A7
:1020E000801A00D20139220C7243130C1204821A96
:1020F00099410B007046043513370100F940A840A0
:10210000801900D30131002B02D1A2420AD2F0BDC6
:10211000013000D30131121BFAD2013BF8D1A242A7
:1021200000D2F0BD013000D30131121BF7E7F0B54A
:102130001C0C00D080E00CB400251C0A04D11B024A
:10214000160E3343120208351C0B04D11B01160F67
:102150003343120104359C0B04D19B00960F33438B
:1021600092000235DC0B02D192185B4101351C0054
:10217000971864410134464F7C66464C3C660E0C11
:10218000FFE7FFE7FFE7C0463C6F6643360C770387
:10219000BE4697B27743C01B00D20139C01B00D2A4
:1021A00001399FB27743C91BC91B170C77437E04C3
:1021B000FF0B801BB941CE086643360C0C2D33DB78
:1021C000B644120B1F053A431B0B97B27743C01B53
:1021D00000D201399FB27743C91B170C77433E04E5
:1021E0003F0C801BB941860D8F023E436643292771
:1021F0007F1BFE400C3D7746AF40BF1930BCA2B2FA
:10220000ABB272437343801A9941220C7243130C90
:102210001204801A994102000B000137001BA941EA
:10222000F9D2781E0021F0BD0C277F1BFE407746B7
:102230007F0BAF40FF19E0E700245D1C07D0144F6F
:102240007D663966FFE7FFE7FFE7FFE73C6F95B282
:102250009EB265436643401BB141150C1E0C65439D
:10226000664336042F0C3E432D04401BB141994276
:1022700004D202000B0020000021F0BD01D19042E9
:10228000F7D3801A994101349942F2D3F6E700005E
:10229000000000D0FFFFFFFF132370B51D78012D54
:1022A00010D00BDD2448FFF78FFD244C0100802265
:1022B000200000F04FF9022D01D070BD1F4C204AC4
:1022C000A264FAE72E001D4C1D4AA3085B421E4083
:1022D0001D422FD0330022602020B1006118801BE6
:1022E0000A604A608A60CA600A614A618A61CA619A
:1022F0000A624A628A62CA620A634A638A63CA637A
:102300000A644A648A64CA640A654A658A65CA6559
:102310000A664A668A66CA660A674A6740081028DB
:1023200003D18A67CA67A264C7E71E339B00E250E5
:10233000A264C2E70023CFE753440000C00C002092
:102340004523001007B5604601880A0A0230DF2ADB
:10235000FAD1C9B2820804D302884088000410432D
:1023600000E00068014A5050039007BDC00C0020F7
:10237000484041404840064B5B681847044B1B6887
:102380001847034BDB681847014B9B681847000050
:10239000C00D002007B548404140484001E0C0461C
:1023A00007B54200120E03D0FF2A03D1420218D80B
:1023B000C00DC0054A00120E03D0FF2A03D14A0205
:1023C0000FD8C90DC9050122414005D4414001D5AE
:1023D000814207BD884207BD0143491801D0C0436F
:1023E000001807BD00B5FFF7DBFF804100BDC04608
:1023F00000B5FFF7D5FF01D9002000BD012000BDC9
:1024000000B5FFF7C7FF01D9002000BD012000BDC6
:1024100041000A0E80231B067E2A0BDD9E3A0BDA52
:10242000C1174002400818435242D04049000131D0
:102430004843704700207047C00FC01801387047EC
:10244000C0420DD300B540004008002100F012F852
:10245000002801D4404200BD8020000600BD0000DD
:10246000034BDB69FC4618471CDF112500100000F8
:10247000C00D0020014B5B6A18470000C00D002012
:10248000132310B512481C78FFF79EFC0100012CA5
:102490000AD003DD80220F4800F05CF80E48FFF7F9
:1024A0008BFC0E4B186010BD0A4C5422200000F02B
:1024B00051F80B4B6365A365E36523666366A3660A
:1024C000E36623676367A367E3672362E361E5E786
:1024D00053460000C00D00204C330000C00E002009
:1024E000E524001007B5604601880A0A0230DF2A99
:1024F000FAD1C9B2820804D302884088000410438C
:1025000000E00068014A5050039007BDC00D002054
:102510000021C2158032803201D0024A10470020CB
:1025200070470000CD2A000010B500F041F910BD41
:1025300010B500F003F910BD01480421014B184704
:10254000F0010020D91D0010014B1B681847000046
:10255000F0010020014B5B6818470000F0010020EB
:10256000F8B54746CE460D0080B516000700002A94
:1025700020DD4B1E98461A4B002400209946002C63
:102580002BD043461B5D0D3B5A425341DBB22A5DC3
:102590000A2A13D00134A642F1DC864203DD311A47
:1025A0003B6828189847AD19013D2B780D3B5A42DE
:1025B00053413B740CBC90469946F8BD002BE9D1C1
:1025C000A04203DA211A3B6828189847484602219E
:1025D0003B68013498472000DDE73B7CD7E7C046E5
:1025E00068310010F0B557464546DE464E46D023CA
:1025F000E0B51B061C68374B83B007000D001800C0
:1026000001A990469A4600F04FFD8146002807D167
:10261000019B9C4204D0504600F04EFD0123994698
:102620006B1C03D1380000F0B3FB05002A4B1C687B
:10263000002C2FD00A23294E9B4602E0E468002C90
:1026400028D02268002AF9D03368002B01D0A34299
:10265000F4D1637C002B2AD02A0039002000FFF738
:102660007FFF4346002BE9D06B465A461A71637CC4
:10267000002B20D0237C002B26D00121236801A829
:1026800098476B461B790D3B5A4253412374E468CB
:10269000002CD6D14B46002B12D1681E8541E8B2E2
:1026A00003B03CBC90469946A246AB46F0BD29001B
:1026B00038009047D5E70121236801A89847BDE776
:1026C000504600F0D9FCE8E7022105482368984706
:1026D000D7E7C046400A0020F40A0020F80A00208C
:1026E0006831001010B582B06B4604000022D81D7E
:1026F00001210470FFF776FF200002B010BDC04634
:1027000070B5040000F044FB012201000500200028
:10271000FFF768FF084B1C68002C06D06368002B8D
:1027200005D09847E468002CF8D1280070BDE46813
:10273000002CF3D1F9E7C046F40A002010B5044B91
:102740000A001B680100180000F004F810BDC04624
:102750000002002010B5514300F03EF8041E0ED0D8
:102760000300083B5A6803239A43043A242A15D8E5
:102770000300132A05D800221A605A609A602000CC
:1027800010BD00210833016041601B2AF3D981602C
:10279000C160242A06D003001033ECE70021FFF7C4
:1027A000D3FEECE70300016118334161E3E7C04663
:1027B00010B5034B0100186800F00EF810BDC046BC
:1027C0000002002010B5034B0100186800F064FB04
:1027D00010BDC04600020020F0B557464546DE4613
:1027E0004E46E0B50D000B3583B00700162D22D8FC
:1027F000102900D9BBE000F0B5FA102518230220FB
:10280000D14EF3181A005C68083A944200D1BEE039
:10281000032362689A431300E268A168CA6091606A
:102820000122E318596838000A435A6000F09CFA04
:10283000200008309EE007239D4300D597E0A94281
:1028400000D994E000F08EFAF823FF339D4200D8BF
:10285000ADE1680A00D194E0042800D980E1382372
:102860009846A80980443930C100B74E711808391C
:10287000CC68A14218D0032362689A431300521B0C
:102880000F2A00DD36E1002AC6DA03239C4608E061
:102890006246636893435A1B0F2A00DD2AE1002A2F
:1028A000BADAE468A142F3D13200346908329442C2
:1028B00000D177E003236168994389460B00491BE7
:1028C0000F2900DD77E1726132610029A8DA9F4AA1
:1028D000914500D910E1DA08012391108B40D20014
:1028E000716892190B4391687360E260A160946013
:1028F000CC60012182109140994259D80B4205D1F8
:1029000003229043490004300B42FBD00323984636
:10291000C3009946B144CC4682466346DC68A44570
:1029200007D129E1002A00DB32E1E468A44500D1A7
:1029300022E14246636893435A1B0F2AF2DD0120CD
:102940008046611905436560A068E5680836C56082
:10295000A8604046F160B16010434860CE608E6070
:102960003800E25000F000FA2000083002E00C23AA
:1029700000203B6003B03CBC90469946A246AB4663
:10298000F0BD80213F238900402098466DE7DC6838
:102990000230A34200D03BE732003469083294424F
:1029A00000D087E701217368821091409942A5D930
:1029B0000323B46862689A439046AA4203D3531B28
:1029C0000F2B00DD88E023004344614A0193614BF3
:1029D00093469A4612681B68EB18013200D139E120
:1029E0005D4A944663441B0B1B0300930099380017
:1029F00000F0BCF903008146013300D1F6E0019BF1
:102A0000834200D9F0E051464968009B8C4651460C
:102A100063444B6001991A00494500D14FE15B4680
:102A20001B68013300D154E14B4601995B1A9A1897
:102A300053465A6007234A461A40019200D113E1D7
:102A400008214B4689469B1A99440099434B4944B7
:102A50009B1A5B1A1B051B0D0091380019009B4641
:102A600000F084F9431C00D14FE14B46C01A03002B
:102A70005B440093534652465B6801215B445360BC
:102A80004A464846B260009A0A434260B44200D1C6
:102A900023E142460F2A00D821E107200C3A824365
:102AA00060680140052011436160A118486088609A
:102AB0000F2A00D934E14A464C4652685146C96A49
:102AC000994201D25146CB625146096B994200D3DB
:102AD0008EE051460B638BE0012229001343114322
:102AE000651961603800B5606B6000F03DF9200049
:102AF00008303FE74046D7E65A0A042A6ED9142A1E
:102B000000D9C1E011005C325B31D20008235B4286
:102B10009C46B218944463469A68032398469445A9
:102B200000D19AE0434651689943494502D99268D9
:102B30009445F7D1D3689C4673686146A260E16012
:102B40008C60D460D5E6C04638060020FF01000046
:102B5000300600207C0A00200F1000000810000042
:102B6000142852D9542800D996E06E239846280B91
:102B700080446F30C10078E608239B46073BDC4465
:102B80009B46DA4443465246134200D0C5E64CE029
:102B90000122E318596838000A435A60E368A268C2
:102BA000D3609A6000F0E0F820000830E2E62B00E5
:102BB000E808083324E6012360191D43656070614D
:102BC0003061C26082601A004B460A43426038009E
:102BD000E15000F0C9F820000830CBE69A09110056
:102BE00039323831D20091E7B44260D0B4686268BB
:102BF00003239A43531BAA4202D30F2B00DD6BE73A
:102C0000380000F0B1F80020B4E65B239846804419
:102C10005C30C10029E608235B429C46E1444B46F8
:102C20009B6801384B4500D097E043460342F2D100
:102C300073688B4373604900994200D9B8E6002954
:102C400004D1B5E6042294464900E2440B42F9D08F
:102C500050465DE610330093C8E68910023B8B4076
:102C600071680B43736068E7009B38004B441B0599
:102C70005B421B0D19009B4600F078F8431C00D006
:102C8000F3E600239B46F5E6542A2AD81A0B1100D6
:102C90006F326E31D20039E7AA235B0098422AD8FE
:102CA000DD3B9846E80B80447830C100DDE55346B3
:102CB0005B68009A9C46534662445A60AFE6090539
:102CC00000D0ACE6009AB468424401310A43626025
:102CD000F4E65B464A461A60ACE64C46EEE64160D6
:102CE0008EE7AA2149008A4224D8DA0B11007832F3
:102CF0007731D2000AE71A4B984224D87C239846B1
:102D0000A80C80447D30C100AFE5009A019B944639
:102D10004A46083B63449B1A009300239B46A9E65E
:102D200021003800083100F0B7F85346B4685B68FA
:102D30006268C3E60A498A420BD89A0C11007D32B8
:102D40007C31D200E2E6FE217E2389007F20984676
:102D50008BE5FE227E219200D8E673686BE7C046C1
:102D6000540500007047C0467047C046002370B548
:102D7000064C050008002360FEF766FC431C00D0EB
:102D800070BD2368002BFBD02B60F9E7C40E002038
:102D900010B5830727D00378002B26D0030003212A
:102DA00002E01A78002A1CD001330B42F9D11968CD
:102DB0000F4A104C8A188A4322420FD104331968F3
:102DC0000B4A8A188A43224208D104331968084AF8
:102DD0008A188A432242F1D000E001331A78002A8F
:102DE000FBD1181A10BD0300E1E70020FAE7C04646
:102DF000FFFEFEFE80808080F8B50C000600FFF725
:102E0000B1FF204FBB685D6803239D431E4B2C1B05
:102E10009C466444240B1D4B013C24039C4207DD6B
:102E200000213000FFF7A2FFBB685B19984204D075
:102E30003000FFF799FF0020F8BD61423000FFF736
:102E400095FF431C0DD00122BB682D1B15435D600F
:102E50000F4B30001A68141B1C60FFF785FF012020
:102E6000EAE700213000FFF781FFBA68831A0F2BD1
:102E7000DEDD08490968401A0549086001210B4355
:102E80005360D5E738060020EF0F0000FF0F000069
:102E9000800A002030060020F0B5D6464F46464650
:102EA0000500C0B50C1E5CD0FFF75CFF210008399F
:102EB0004F6801243B000322A343C8184668964389
:102EC000B146664EB268824200D175E04A46426021
:102ED000821894463C4229D10F68C91B8A68DB19C5
:102EE000904662465768082294462740B444BA4642
:102EF000E04556D0CA68944642466746D760624667
:102F0000474697605246002A13D101224B44CF18FE
:102F1000BC468468524F1A43BC4200D17AE0C06874
:102F2000E06084604A606246136005E057682742AB
:102F3000EBD01C434C6003604A4A934216D8DB082E
:102F4000FF3A9810FF3A82407068DB0002437260DB
:102F50009E19B368CE608B60B160D9602800FFF71E
:102F600003FF1CBC90469946A246F0BD5C0A042CA7
:102F70003AD89C09200039343830E4003419083C30
:102F8000A268032794423ED05068B843984202D9C1
:102F900092689442F8D1D468CC608A60A160D16014
:102FA000DCE7002F55D1C2684B4480681C43C260E7
:102FB00090604C60CB50D1E74B443C4206D10A684C
:102FC000891A88689B18CA68C260906001221A43F7
:102FD0004A60254AB16012689A42BFD8234B280044
:102FE0001968FFF709FFB9E7142C07D9542C19D831
:102FF0001C0B20006F346E30E400BFE720005C340F
:103000005B30E400BAE7012380108340706803431B
:103010007360C1E7E160A1604A606246CC608C6089
:1030200013609BE7AA204000844205D8DC0B2000F7
:1030300078347730E400A1E70D48844205D89C0C31
:1030400020007D347C30E40098E7FE247E20A4003C
:1030500094E71C434C60036080E7C04638060020BC
:1030600040060020FF010000340600207C0A0020FA
:1030700054050000F8B5C04601B40248844601BCBE
:10308000604700BF5D01002001B40248844601BCD6
:10309000604700BF8501002001B40248844601BC9E
:1030A000604700BF8501002001B40248844601BC8E
:1030B000604700BF1101002001B40248844601BCF2
:0830C000604700BFC1000020C1
:1030C800486172647761726520616C61726D202558
:1030D8006420616C726561647920636C61696D65F7
:1030E800640000000A2A2A2A2050414E4943202A17
:1030F8002A2A0A000A00000048617264206173737A
:103108006572740052656C6561736500302E31001C
:10311800312E302E300000007069636F000000000F
:103128006D617276696E5F6D6F746F727300000007
:103138004A616E203330203230323100060052505E
:10314800BBFF3CB620310010060052503ABCA91112
:103158001431001006005250D3F075420C310010A3
:043168000D0A00004C
:10316C00E8010010DC010010D00100104431001007
:0C317C00C4010010503100105C31001044
:1031880010B502680024EFF3108172B61368002BA3
:10319800FCD0BFF35F8F0379002B0BD00368BFF31C
:1031A8005F8F1C6081F3108820BF0268EFF31081E5
:1031B80072B6EBE701220271D02212061268427140
:1031C8000268BFF35F8F136081F3108810BDC0469B
:1031D800030010B50068EFF3108472B60268002A85
:1031E800FCD0BFF35F8F1A79002A0DD0002913D0C5
:1031F800052200209A560A601B68BFF35F8F0022E1
:103208001A6084F3108810BD01321A71D022120698
:10321800126801205A71EFE70020EDE70268EFF32A
:10322800108172B61368002BFCD0BFF35F8F0023A8
:10323800037140BF0268BFF35F8F136081F310888A
:103248007047C0467047C0461000000000000000EC
:103258000000010000000000000000000000020063
:103268000000000000000000000003000000000053
:10327800000000000000FF000000000000B54868E2
:1032880001318E460047704609380149884700BD1C
:10329800751C001000000000000000000000000085
:1032A800503300004C330000543300005233000008
:1032B8004D5300004D4300005334000043340000D8
:1032C800080200200000000000000000F4040020B4
:1032D8005C050020C405002000000000000000007C
:1032E80000000000000000000000000000000000D6
:1032F80000000000000000000000000000000000C6
:1033080000000000000000000000000000000000B5
:1033180000000000000000000000000000000000A5
:103328000000000000000000000000000000000095
:103338000000000000000000000000000000000085
:103348000000000000000000000000000000000075
:103358000000000000000000000000000000000065
:103368000000000000000000000000000000000055
:1033780001000000000000000E33CDAB34126DE6F2
:10338800ECDE05000B00000000000000000000005B
:103398000000000000000000000000000000000025
:1033A8000000000000000000000000000000000015
:1033B8000000000000000000000000000000000005
:1033C80000000000000000000000000000000000F5
:1036F800FFFFFFFF000002000000000000000000C4
:103708003806002038060020400600204006002029
:1037180048060020480600205006002050060020D9
:103728005806002058060020600600206006002089
:103738006806002068060020700600207006002039
:1037480078060020780600208006002080060020E9
:103758008806002088060020900600209006002099
:103768009806002098060020A0060020A006002049
:10377800A8060020A8060020B0060020B0060020F9
:10378800B8060020B8060020C0060020C0060020A9
:10379800C8060020C8060020D0060020D006002059
:1037A800D8060020D8060020E0060020E006002009
:1037B800E8060020E8060020F0060020F0060020B9
:1037C800F8060020F8060020000700200007002067
:1037D8000807002008070020100700201007002015
:1037E80018070020180700202007002020070020C5
:1037F8002807002028070020300700203007002075
:103808003807002038070020400700204007002024
:1038180048070020480700205007002050070020D4
:103828005807002058070020600700206007002084
:103838006807002068070020700700207007002034
:1038480078070020780700208007002080070020E4
:103858008807002088070020900700209007002094
:103868009807002098070020A0070020A007002044
:10387800A8070020A8070020B0070020B0070020F4
:10388800B8070020B8070020C0070020C0070020A4
:10389800C8070020C8070020D0070020D007002054
:1038A800D8070020D8070020E0070020E007002004
:1038B800E8070020E8070020F0070020F0070020B4
:1038C800F8070020F8070020000800200008002062
:1038D8000808002008080020100800201008002010
:1038E80018080020180800202008002020080020C0
:1038F8002808002028080020300800203008002070
:10390800380800203808002040080020400800201F
:1039180048080020480800205008002050080020CF
:10392800580800205808002060080020600800207F
:10393800680800206808002070080020700800202F
:1039480078080020780800208008002080080020DF
:10395800880800208808002090080020900800208F
:103968009808002098080020A0080020A00800203F
:10397800A8080020A8080020B0080020B0080020EF
:10398800B8080020B8080020C0080020C00800209F
:10399800C8080020C8080020D0080020D00800204F
:1039A800D8080020D8080020E0080020E0080020FF
:1039B800E8080020E8080020F0080020F0080020AF
:1039C800F8080020F808002000090020000900205D
:1039D800080900200809002010090020100900200B
:1039E80018090020180900202009002020090020BB
:1039F800280900202809002030090020300900206B
:103A0800380900203809002040090020400900201A
:103A180048090020480900205009002050090020CA
:103A2800580900205809002060090020600900207A
:103A3800680900206809002070090020700900202A
:103A480078090020780900208009002080090020DA
:103A5800880900208809002090090020900900208A
:103A68009809002098090020A0090020A00900203A
:103A7800A8090020A8090020B0090020B0090020EA
:103A8800B8090020B8090020C0090020C00900209A
:103A9800C8090020C8090020D0090020D00900204A
:103AA800D8090020D8090020E0090020E0090020FA
:103AB800E8090020E8090020F0090020F0090020AA
:103AC800F8090020F8090020000A0020000A002058
:103AD800080A0020080A0020100A0020100A002006
:103AE800180A0020180A0020200A0020200A0020B6
:103AF800280A0020280A0020300A0020300A002066
:103B0800000000000000000039250010A91D001069
:103B180099220010812400104D030010590500104F
:0400000510000105E1
:00000001FF
